:100000000C9461000C947E000C947E000C947E0095
:100010000C947E000C947E000C947E000C947E0068
:100020000C947E000C947E000C947E000C947E0058
:100030000C947E000C947E000C947E000C947E0048
:100040000C94D1020C947E000C947E000C947E00E3
:100050000C947E000C947E000C947E000C947E0028
:100060000C947E000C947E00000000080002010049
:100070000003040700000000000000000102040863
:100080001020408001020408102001020408102002
:10009000040404040404040402020202020203032E
:1000A00003030303000000002300260029000000D2
:1000B0000000250028002B0000000000240027007D
:1000C0002A0011241FBECFEFD8E0DEBFCDBF11E064
:1000D000A0E0B1E0EAE4F8E002C005900D92A6309D
:1000E000B107D9F711E0A6E0B1E001C01D92A93334
:1000F000B107E1F70E942A020C9423040C9400003B
:10010000CF93DF938091280190912901892B69F089
:1001100060E089E00E94C40360E08AE00E94C403BA
:10012000109229011092280143C0809104019091FE
:100130000501892B69F060E089E00E94C40361E059
:100140008AE00E94C40310920501109204010EC0BF
:1001500061E089E00E94C40360E08AE00E94C40379
:1001600081E090E090930501809304010E941B03BD
:1001700060932A0170932B0180932C0190932D01A1
:10018000C1E0D0E0D0932F01C0932E0161E088E060
:100190000E94C4030E941B036093240170932501F5
:1001A0008093260190932701D0932901C0932801C1
:1001B000DF91CF91089583E00E94FA03892B29F4FF
:1001C00010922301109222010DC080912201909182
:1001D0002301892B39F481E090E0909323018093EF
:1001E0002201089580E090E008950F931F93CF932C
:1001F000DF9382E00E94FA03EC018091200190914C
:100200002101C817D90779F0D0932101C0932001AB
:100210000E941B0360931C0170931D0180931E01BB
:1002200090931F011AC00E941B0300911C011091A2
:100230001D0120911E0130911F01601B710B820B6B
:10024000930B653671058105910538F080910201A7
:1002500090910301C817D90719F480E090E009C014
:10026000D0930301C093020181E090E0219709F04F
:1002700080E0DF91CF911F910F9108950F931F930D
:10028000CF93DF9384E00E94FA03EC0180911A017E
:1002900090911B01C817D90779F0D0931B01C09327
:1002A0001A010E941B03609316017093170180933B
:1002B00018019093190141C00E941B03009116017F
:1002C000109117012091180130911901601B710BD9
:1002D000820B930B653671058105910570F1809154
:1002E000000190910101C817D90739F1D09301019C
:1002F000C0930001219709F561E080912E01909152
:100300002F01892B09F060E0862F90E090932F0158
:1003100080932E0188E00E94C40380912E01909169
:100320002F01892B51F00E941B0360932A017093C7
:100330002B0180932C0190932D01DF91CF911F9180
:100340000F9108950F931F93CF93DF9385E00E9441
:10035000FA03EC018091140190911501C817D90797
:1003600079F0D0931501C09314010E941B03609390
:10037000100170931101809312019093130117C023
:100380000E941B0300911001109111012091120194
:1003900030911301601B710B820B930B6536710555
:1003A0008105910520F0D0930F01C0930E0181E0EB
:1003B00090E020910E0130910F01232B11F080E08D
:1003C00090E0DF91CF911F910F9108950F931F93AC
:1003D000CF93DF9386E00E94FA03EC0180910C0139
:1003E00090910D01C817D90779F0D0930D01C093F2
:1003F0000C010E941B036093080170930901809314
:100400000A0190930B0117C00E941B030091080181
:100410001091090120910A0130910B01601B710BB1
:10042000820B930B653671058105910520F0D09301
:100430000701C093060181E090E020910601309110
:100440000701232B11F080E090E0DF91CF911F9105
:100450000F9108950E94270360E08DE00E948B03B6
:1004600060E084E00E948B0360E083E00E948B03E5
:1004700060E082E00E948B0360E085E00E948B03D5
:1004800060E086E00E948B0361E088E00E948B03BD
:1004900061E089E00E948B0361E08AE00E948B03A7
:1004A0002FE088E190E00FB6F894A8958093600063
:1004B0000FBE20936000A8950E943E010E94F500A7
:1004C000892B19F00E94800004C00E94DB00892B58
:1004D000C9F70E94A201892B69F0809104019091D3
:1004E0000501892B39F08091280190912901892BF0
:1004F00009F04EC00E94E601892B69F08091040149
:1005000090910501892B39F480912801909129015E
:10051000892B09F040C08091280190912901892BF5
:1005200099F00E941B030091240110912501209154
:10053000260130912701601B710B820B930B693CE4
:1005400072438105910550F580912E0190912F0104
:10055000019709F0B0CF0E941B0300912A0110916E
:100560002B0120912C0130912D01601B710B820B0E
:10057000930B613375478105910508F49CCF109268
:100580002F0110922E0160E088E00E94C40393CFF7
:100590000E948000AFCF0E948000BDCF0E948000EB
:1005A000D3CF1F920F920FB60F9211242F933F9328
:1005B0008F939F93AF93BF938091310190913201BC
:1005C000A0913301B09134013091300126E0230F26
:1005D0002D3720F40296A11DB11D05C029E8230F77
:1005E0000396A11DB11D209330018093310190939A
:1005F0003201A0933301B093340180913501909181
:100600003601A0913701B09138010196A11DB11DAD
:100610008093350190933601A0933701B093380150
:10062000BF91AF919F918F913F912F910F900FBEEE
:100630000F901F9018952FB7F89460913101709129
:10064000320180913301909134012FBF0895789445
:1006500084B5826084BD84B5816084BD85B58260C7
:1006600085BD85B5816085BDEEE6F0E08081816065
:100670008083E1E8F0E01082808182608083808165
:1006800081608083E0E8F0E0808181608083E1EB3D
:10069000F0E0808184608083E0EBF0E08081816025
:1006A0008083EAE7F0E080818460808380818260DB
:1006B000808380818E7F8083808180688083109298
:1006C000C1000895833081F028F4813099F08230A0
:1006D000A1F008958730A9F08830B9F08430D1F4C2
:1006E000809180008F7D03C0809180008F77809300
:1006F0008000089584B58F7702C084B58F7D84BD56
:1007000008958091B0008F7703C08091B0008F7DF5
:100710008093B0000895CF93DF9390E0FC01E458FC
:10072000FF4F2491FC01E057FF4F8491882349F14A
:1007300090E0880F991FFC01E854FF4FA591B491F8
:1007400082559F4FFC01C591D4919FB7611108C09C
:10075000F8948C91209582238C93888182230AC0FF
:10076000623051F4F8948C91322F309583238C931E
:100770008881822B888304C0F8948C91822B8C937F
:100780009FBFDF91CF9108950F931F93CF93DF9376
:100790001F92CDB7DEB7282F30E0F901E859FF4F9F
:1007A0008491F901E458FF4F1491F901E057FF4F8C
:1007B00004910023C9F0882321F069830E94620319
:1007C0006981E02FF0E0EE0FFF1FE255FF4FA5918A
:1007D000B4919FB7F8948C91611103C01095812357
:1007E00001C0812B8C939FBF0F90DF91CF911F9100
:1007F0000F910895CF93DF93282F30E0F901E85946
:10080000FF4F8491F901E458FF4FD491F901E0576B
:10081000FF4FC491CC2391F081110E946203EC2F11
:10082000F0E0EE0FFF1FEC55FF4FA591B4912C9116
:100830002D2381E090E021F480E002C080E090E090
:0A084000DF91CF910895F894FFCFE7
:06084A00FFFFFFFF0100AB
:00000001FF
