:100000000C94EF000C9417010C9417010C94170139
:100010000C9417010C9417010C9417010C94170100
:100020000C9417010C9417010C94690A0C941A098A
:100030000C9417010C9417010C9417010C941701E0
:100040000C9417010C9417010C9417010C941701D0
:100050000C9417010C9417010C9417010C94960B37
:100060000C9417010C9417010C9417010C941701B0
:100070000C9417010C9417010C9417010C941701A0
:100080000C9417010C9417010C9417010C94170190
:100090000C9417010C9417010C9417010C94170180
:1000A0000C9417010C9417010C941701250B2A0BC3
:1000B0002F0B390B430B8D0B8D0B8D0B4D0B570BF2
:1000C000610B6B0B780B8D0B800B990C9C0C8B0CC4
:1000D0008F0C950CBD0CBD0CBD0CA00CA40CA80C79
:1000E000AE0CB20CBD0CB80C080B000202020100F1
:1000F000090400000102020000052400100105248B
:1001000001010104240206052406000107058103FC
:1001100010004009040100020A0000000705020265
:100120004000000705830240000012010002EF02B8
:10013000014041234180000101020001120100023F
:100140000000004041234180000101020001417292
:100150006475696E6F204C4C430041726475696E22
:100160006F00040309040000000200090F000003EF
:100170000401000C0000000000000000000000006E
:100180000000000004080201104080401020408060
:1001900040800802040180402010020110801020DD
:1001A00040400404040404030405020202020403A0
:1001B0000202020206060606060604040202020401
:1001C00000000000250028002B002E003100000058
:1001D0000000240027002A002D003000AB06112467
:1001E0001FBECFEFDAE0DEBFCDBF11E0A0E0B1E08F
:1001F000E8E4FBE102C005900D92AA32B107D9F7FD
:1002000012E0AAE2B1E001C01D92A93AB107E1F7FC
:1002100011E0CEEDD1E004C02297FE010E949E0DB8
:10022000CC3DD107C9F70E94C9060C94A20D0C94CD
:1002300000009091010180EE890F813A28F08091B1
:10024000000181958093000160910001690F609326
:10025000010170E089E00E94FF0A64E170E080E043
:1002600090E00C94030C1F93CF93DF93182FEB01B6
:1002700061E0812F0E94F70C6EE170E080E090E079
:100280000E94030C60E0812F0E94F70C6EE170E089
:1002900080E090E00E94030C219750F7DF91CF910E
:1002A0001F91089540E05BE460E070E082E492E03A
:1002B0000E94A50661E087E00E94BE0C62E070E04B
:1002C00087E090E00E94330161E088E00E94BE0C6C
:1002D00062E070E088E090E00E94330161E089E034
:1002E0000E94BE0C62E070E089E090E00C94330163
:1002F000682F87E00C94F70C83E58CBD8DB58EB527
:1003000008950DB407FEFDCF08958EBD0E948101B2
:100310008EB50895CF93DF9300D01F92CDB7DEB78F
:100320002B834A8369830E94850169816EBD0E9487
:1003300081018EB54A814EBD0E9481018EB52B810F
:100340002EBD0E9481018EB50F900F900F90DF910E
:10035000CF91089580913C0180932A0180913D01C5
:1003600080932B0180913E0180932C0180913F016D
:1003700080932D018091400180932E018091410155
:1003800080932F018091420180933001809143013D
:10039000809331018091440190E0909333018093E8
:1003A00032018091460190E0982F882720914701E3
:1003B000820F911D90933501809334018091480103
:1003C00090E0982F882720914901820F911D9093EA
:1003D00037018093360180914A0190E0982F882759
:1003E00020914B01820F911D909339018093380128
:1003F00080914E0190E0982F882720914F01820F25
:10040000911D90933B0180933A0108950E947C01D5
:1004100061E08AE00E94BE0C61E08AE00E94F70C75
:1004200061E08FE00E94BE0C60E08FE00E94F70C5C
:1004300062E370E080E090E00E94030C60E08AE0FC
:100440000E94F70C62E370E080E090E00E94030CF1
:1004500060E08EE00E94BE0C61E080E10E94BE0C74
:1004600020E040E063E58CEA0E948A0181E090E0B0
:1004700090933F0280933E02089560E08EE00E94D8
:10048000BE0C60E080E10E94BE0C60E08FE00E9444
:10049000BE0C60E08AE00E94BE0C10923F021092F7
:1004A0003E020895962F672F242F880F880F880FFC
:1004B000492F805C0C948A01CF93DF9300D0CDB795
:1004C000DEB7482F692F80E090E049836A830E945D
:1004D000780120E049816A818CE40E948A016EE102
:1004E00070E080E090E00E94030C81E090E00F90CB
:1004F0000F90DF91CF910C947801209136013091CB
:10050000370180913C0290913D022032310511F477
:10051000807F08952034310511F4807E08952038BD
:10052000310511F4807C08952115314009F480785B
:100530000895EF92FF920F931F93CF93DF937C0167
:1005400080913C0290913D020E947D028C01C0E0AE
:10055000D0E0CE15DF05ACF580913C0290913D02D4
:100560000E947D020817190751F0C8010E945C0221
:1005700080913C0290913D020E947D028C01FE011F
:10058000E45CFE4F60913C0270913D02408180E04E
:100590000E9452022296FE01E55CFE4F60913C02F1
:1005A00070913D02408181E00E94520220913C0204
:1005B00030913D022F5F3F4F30933D0220933C022C
:1005C000C8CFC8010E945C0280E1DF91CF911F91EA
:1005D0000F91FF90EF900895462F880F880F880F96
:1005E00020E0672F805E0C948A010F931F93CF93B6
:1005F000DF938C01C0E0D0E0C017D10724F56091F3
:100600003C0270913D0280E00E94EC02682F82E47F
:1006100092E00E94F40660913C0270913D0281E0FC
:100620000E94EC02682F82E492E00E94F40620917E
:100630003C0230913D022F5F3F4F30933D022093AB
:100640003C022296D9CF80E1DF91CF911F910F918B
:100650000895EF92FF920F931F93CF93DF937C0146
:1006600000913C0210913D02000F111FE801CE01E4
:10067000801B910B8E159F056CF42FEF4C2F6D2F67
:1006800080EA0E948A01682F82E492E00E94F406C8
:100690002196EDCF80E1DF91CF911F910F91FF90D7
:1006A000EF90089582E492E00E940506892BD1F331
:1006B00082E492E00E94150608950F931F93CF9352
:1006C000DF938C01CCE3D1E0CE018C5391408017B5
:1006D000910724F40E9452038993F6CFDF91CF91C2
:1006E0001F910F910895CF92DF92EF92FF920F9397
:1006F0001F93CF93DF936C017B01CB010E945D03BD
:1007000080E090E00E9478010CE311E0E601C8016E
:100710008C5391408E159F0584F4F80121918F012F
:100720004C2F6D2F80EC0E948A016DE270E080E01A
:1007300090E00E94030C2196EACF81E090E00E94B5
:10074000780180E1DF91CF911F910F91FF90EF90A1
:10075000DF90CF9008950F931F93CF93DF93EC0119
:1007600000913C0210913D02809138019091390135
:100770008C179D071CF0000F111F0BC080914002C9
:10078000909141020196909341028093400281E151
:1007900011C0C132D1054CF060E270E0C8010E9486
:1007A0007303005E1F4FA097F4CFBE01C8010E94E3
:1007B000730380E1DF91CF911F910F9108950E9403
:1007C0005203803239F464E182E492E00E94F4063C
:1007D00060E10AC08091400290914102019690939D
:1007E00041028093400265E182E492E00C94F406B9
:1007F000CF93C82F0E945203803261F464E182E4F7
:1008000092E00E94F4066C2F82E492E00E94F406CB
:1008100060E10AC08091400290914102019690935C
:1008200041028093400265E182E492E0CF910C9412
:10083000F406813859F020F4803861F482E00BC06E
:10084000823831F0833931F483E505C081E003C09B
:1008500082E101C080E00C94F80384E090E00E9403
:100860005D0320913F0140913E0160913D018091E7
:100870003C010E948A010C94F803CF93DF93EC01B2
:100880000E945D030E945203803251F464E182E4CD
:1008900092E00E94F406CE010E949902682F0AC0DD
:1008A0008091400290914102019690934102809381
:1008B000400265E182E492E0DF91CF910C94F4066E
:1008C000CF93DF930E945203C82FD0E0DC2FCC27B8
:1008D0000E945203C80FD11D0E945203863429F48E
:1008E000CE01DF91CF910C943D048534D1F4CE013B
:1008F0000E94AB03C82F0E945203803239F464E196
:1009000082E492E00E94F4066C2F0CC080914002B9
:10091000909141020196909341028093400265E1DB
:1009200001C061E182E492E0DF91CF910C94F40682
:100930000F931F93CF93DF930E945203C82F0E94FF
:100940005203082F0E945203182F0E945203803234
:1009500059F080914002909141020196909341029A
:100960008093400265E118C0D0E0DC2FCC27C00F97
:10097000D11D64E182E492E00E94F406163421F471
:10098000CE010E94F50207C0153421F4CE010E9469
:10099000290301C081E1682F82E492E0DF91CF91C9
:1009A0001F910F910C94F4060E945203803259F06B
:1009B0008091400290914102019690934102809370
:1009C000400265E127C064E182E492E00E94F406FF
:1009D00020E040E060E080E30E948A01682F82E42A
:1009E00092E00E94F40620E041E060E080E30E9493
:1009F0008A01682F82E492E00E94F40620E042E03F
:100A000060E080E30E948A01682F82E492E00E9405
:100A1000F40660E182E492E00C94F4060E94520332
:100A2000813509F484C038F5813409F468C098F43C
:100A3000803309F44DC0813309F44FC0803209F08E
:100A400082C08091400290914102019690934102B0
:100A50008093400287C0853409F456C0803509F47C
:100A600058C0823409F06FC084E190E00E945D03B9
:100A70000E94AA0162C0813609F450C000F5863593
:100A800009F452C0803609F447C0853509F05BC0CF
:100A90000E94520390E090933D0280933C020E949A
:100AA000520390E0982F882720913C0230913D021C
:100AB000280F391F30933D0220933C023EC08437FB
:100AC00081F18537E9F18436F1F50E9460040895DB
:100AD000109241021092400230C00E9452038032B4
:100AE00009F045C064E182E492E00E94F40661E10D
:100AF00071E082E492E00E94F20660E134C00E945C
:100B000052030E941904089585E090E00E945D035D
:100B100014C00E94060211C00E9452030E94520398
:100B20000CC00E94980408950E942D04089510920C
:100B30004102109240020E943D020E94DF0308958C
:100B40000E94D40408958091400290914102019640
:100B500090934102809340020E945203803211F42C
:100B600062E101C065E182E492E00C94F40608952C
:100B700080913E0290913F02892B11F061E001C00B
:100B800060E087E00E94F70C809140029091410262
:100B9000892B11F061E001C060E088E00E94F70C51
:100BA0000E94190182E492E00E940506892B11F04F
:100BB0000C940E050895CF93DF931F92CDB7DEB747
:100BC0006983DC01ED91FC910280F381E02D41E02D
:100BD00050E0BE016F5F7F4F09950F90DF91CF917D
:100BE0000895CF93DF93EC018C859D8597FF05C019
:100BF00082E00E94EF079D878C878C859D85DF9121
:100C0000CF91089583E00C945F0AFC01848595855B
:100C100097FD06C082E00E94970790E00196089534
:100C200082E00E94970790E00895FC0184859585F5
:100C300097FD05C02FEF3FEF35872487089582E0A9
:100C40000C94EF07CF93DF93EC0180910901882387
:100C500031F083E00E9420081816190634F081E074
:100C600090E09B838A8380E090E0DF91CF910895AC
:100C7000FC0120812E5F208342E450E068EE70E0AA
:100C800080E80C94BB08FC0181819081913A59F471
:100C9000813209F045C047E050E062E071E080E059
:100CA0000E94BB0850C0913209F03AC0803239F43A
:100CB00067E070E082E091E00E94EC0806C08232BA
:100CC00009F041C0828180930901809102019091D5
:100CD0000301A0910401B0910501803B9440A1055E
:100CE000B10501F58091090180FD1CC080910008CB
:100CF000909101089093FF0A8093FE0A87E797E797
:100D000090930108809300082BE088E190E00FB6F3
:100D1000F894A895809360000FBE2093600013C0E4
:100D200080E0089588E10FB6F894809360001092F7
:100D300060000FBEA8958091FE0A9091FF0A9093E3
:100D400001088093000881E008952FEF3FEFFC0138
:100D5000358724870895109245021092440288EE48
:100D600093E0A0E0B0E08093460290934702A09306
:100D70004802B09349028DE191E090934302809341
:100D800042028FEF9FEF90934F0280934E0208959F
:100D900008950E942B0C0E94C80682E992E00E94EE
:100DA000EC0A0E945201C0E0D0E00E94B8052097F2
:100DB000E1F30E940000F9CF6115710581F0DB01BC
:100DC0000D900020E9F7AD0141505109461B570B2A
:100DD000DC01ED91FC910280F381E02D099480E02B
:100DE00090E008950C94DC06DC01ED91FC910190FB
:100DF000F081E02D09944091960250919702209144
:100E000094023091950242175307B4F49091E80090
:100E10009570E1F39091E80092FD19C08093F10084
:100E2000809196029091970201968F739927892B52
:100E300019F48EEF8093E8008091960290919702CA
:100E40000196909397028093960281E0089580E046
:100E50000895CF92DF92FF920F931F93CF93DF936A
:100E60001F92CDB7DEB7082F162F862F880F8E5F03
:100E700099830E94FB0683E00E94FB06F02EC02EA1
:100E80009981D92E8C2D8F19811778F4F6018491D0
:100E90000E94FB06082F80E00E94FB068023FFEFE4
:100EA000CF1ADF0A8111EECF01C081E00F90DF91F0
:100EB000CF911F910F91FF90DF90CF900895809177
:100EC000D70081608093D70080EA8093D80089B5ED
:100ED000806189BD89B5826089BD09B400FEFDCFFE
:100EE00061E070E080E090E00E94030C8091D80007
:100EF0008F7C80618093D8008091E000807F809318
:100F0000E0000895615030F02091F100FC01208351
:100F10000196F8CF289884E680939B0208952FB716
:100F2000FC012083F89467706093E9000895CF93E3
:100F3000DF931F92CDB7DEB7682FCE0101960E94D6
:100F40008F078091F20099819FBF0F90DF91CF9121
:100F50000895FF920F931F93CF93DF9300D0CDB7E7
:100F6000DEB7F62E8A0190919A02992311F057FF6D
:100F700003C08FEF9FEF2BC0682FCE0101967A83BD
:100F80000E948F078091F20090E0A8017A8180177B
:100F900091070CF4AC01EF2DF72FF40E84E6FE164A
:100FA00039F0289880939B029091F1009193F7CFAC
:100FB0004115510521F08091F200882321F08981AB
:100FC0008FBFCA0104C08BE68093E800F8CF0F9072
:100FD0000F90DF91CF911F910F91FF900895CF93C4
:100FE000DF931F92CDB7DEB741E050E0BE016F5FE7
:100FF0007F4F0E94A907019719F4898190E002C0F0
:101000008FEF9FEF0F90DF91CF910895CF93DF93F4
:101010001F92CDB7DEB7682FCE0101960E948F07D1
:101020009091E800892F807295FF04C09091F200A2
:1010300080E4891B99819FBF0F90DF91CF91089524
:101040006F927F928F929F92AF92BF92CF92DF92D8
:10105000EF92FF920F931F93CF93DF931F92CDB721
:10106000DEB7782E7B01C42EB52E80919A0288239C
:1010700069F0042F152F8AEFD82E872D8072982EB5
:101080009AE3A92E872D8074882E11C08FEF9FEFD1
:1010900057C0872D0E940608682E81110CC0DA9473
:1010A000A9F361E070E080E090E00E94030C01157C
:1010B000110579F73BC0282F30E0021713070CF415
:1010C000602E672DCE0101960E948F078091E80067
:1010D00085FF29C0262D30E0021B130B992039F023
:1010E0006A948FEF6816B1F01092F100F9CFF70112
:1010F000862D77FE07C0815058F094919093F100AF
:101100003196F9CF815020F091919093F100FACF70
:10111000E20EF31E8091E80085FF0FC00115110556
:1011200011F481100AC089818FBFC1CF5D9884E618
:1011300080939C028C2D9B2D03C0A092E800F3CFDE
:101140000F90DF91CF911F910F91FF90EF90DF9063
:10115000CF90BF90AF909F908F907F906F900895A9
:101160001092E900109297021092960290939502C5
:10117000809394020895CF92DF92FF920F931F9372
:10118000CF93DF9300D0CDB7DEB7F82E8A016B0185
:1011900001151105B1F0F601F7FE02C0849101C0FE
:1011A000808149835A830E94FB0601501109FFEF99
:1011B000CF1ADF0A49815A818111EACF8FEF9FEF61
:1011C00001C0CA010F900F90DF91CF911F910F9135
:1011D000FF90DF90CF9008951F93CF93DF931F92DE
:1011E000CDB7DEB7162F2091E80022FFFCCF612F8C
:1011F00079830E9482078BEF8093E800812F7981A9
:10120000972F0F90DF91CF911F910895CF93DF9388
:101210001F92CDB7DEB71982CE0101960E94380623
:10122000CE0101960E942D0D898190E00F90DF91F3
:10123000CF9108951F920F920FB60F921124DF9253
:10124000EF92FF920F931F932F933F934F935F93D0
:101250006F937F938F939F93AF93BF93EF93FF937E
:10126000CF93DF93CDB7DEB76197DEBFCDBF1092CE
:10127000E9008091E80083FF04C168E0CE010A968E
:101280000E94820782EF8093E8008A8587FF05C06D
:101290009091E80090FFFCCF03C09EEF9093E80090
:1012A000982F907609F0D6C09B854C85DD849111EE
:1012B0000CC0803829F4809199028093F10002C01B
:1012C0001092F1001092F100D5C0242F30E03D299A
:1012D000913051F48111CEC02130310509F0CAC0DE
:1012E000809199028D7F0BC0933061F48111C2C04F
:1012F0002130310509F0BEC080919902826080934F
:101300009902B8C0953041F48091E80080FFFCCF8D
:1013100040684093E300AEC0963009F072C0E888A0
:10132000F98822E0D2122CC080E090E00E94B00840
:101330000E94060999E08E010F5F1F4FF801292FC7
:1013400011922A95E9F79983DA8291E09E8390EAD7
:1013500098879AEF99872091960230919702275F9C
:101360003F4F3C832B838D83C7010E94B00849E027
:1013700050E0B80180E00E94BB080E9406097AC0D4
:10138000C7010E94B0088D2D0E94500D009719F0E2
:101390000CF070C073C081E0D8120EC088899989A2
:1013A000089719F481E08093930280919302811150
:1013B00018C06CE371E01AC0E3E0DE125FC08C85F8
:1013C000882391F0823021F467E08AE591E006C03D
:1013D000813009F053C06BE08EE491E00E94290750
:1013E00047C06AE271E002C062E671E06115710512
:1013F00009F444C0FB01449150E080E80E94BB081E
:1014000039C09730D9F1983021F481E08093F10010
:1014100031C0993079F5837089F5EBE0F1E081E036
:1014200021E036E39081992361F08093E9002093D5
:10143000EB0091919093EC003093ED008F5F87303B
:1014400089F78EE78093EA001092EA008C858093FA
:101450009A0210C0888999890E94B0086E85CE01D1
:101460000A96611103C00E94430602C00E94730DD8
:10147000882321F08EEF8093E80003C081E28093FF
:10148000EB0061960FB6F894DEBF0FBECDBFDF91C3
:10149000CF91FF91EF91BF91AF919F918F917F91EC
:1014A0006F915F914F913F912F911F910F91FF90FD
:1014B000EF90DF900F900FBE0F901F9018958093C4
:1014C000E9008091F200882319F08AE38093E80014
:1014D00008951F920F920FB60F9211242F933F93EE
:1014E0004F935F936F937F938F939F93AF93BF932C
:1014F000CF93EF93FF93C091E1008091E100837F50
:101500008093E1008093E100C3FF0FC01092E900D7
:1015100081E08093EB001092EC0082E38093ED0079
:1015200010929A0288E08093F000C2FF19C083E015
:101530000E945F0A80919C02882339F080919C026E
:10154000815080939C02882389F180919B0288239B
:1015500039F080919B02815080939B02882341F156
:10156000C4FF10C08091E2008E7E81608093E20013
:101570008091E1008F7E8093E100809198028E7EC1
:10158000806111C0C0FF16C08091E2008E7E806134
:101590008093E2008091E1008E7E8093E100809153
:1015A00098028E7E81608093980204C05D9ACDCFB0
:1015B000289AD6CFFF91EF91CF91BF91AF919F9194
:1015C0008F917F916F915F914F913F912F910F90EC
:1015D0000FBE0F901F90189510929A0210929902C8
:1015E000109298020E945F07E1EEF0E080818E7E0B
:1015F00080838DE08093E200559A209A08951F938E
:10160000CF93DF93182FEB0161E00E94BE0C20976F
:1016100011F460E004C0CF3FD10539F461E0812FBF
:10162000DF91CF911F910C94F70CE12FF0E0EA5974
:10163000FE4F449150E0FA013197EF30F10508F088
:101640006CC0EA5AFF4F0C949C0D84B5806884BD31
:10165000C7BD68C084B5806284BDC8BD63C08091C9
:101660008000806880938000D0938900C0938800B8
:1016700059C080918000806280938000D0938B005D
:10168000C0938A004FC08091800088608093800062
:10169000D0938D00C0938C0045C0809190008068ED
:1016A00080939000D0939900C09398003BC08091A4
:1016B0009000806280939000D0939B00C0939A002A
:1016C00031C080919000886080939000D0939D00FD
:1016D000C0939C0027C08091C00080688093C000A8
:1016E0008091C0008F7B8093C000C093CF001AC050
:1016F0008091C00080628093C000C093D00012C06F
:101700008091C20088608093C2008091C2008B7F6C
:101710008093C200C093D20005C0C038D1050CF040
:101720007DCF77CFDF91CF911F9108951F920F92B8
:101730000FB60F9211242F933F938F939F93AF93E4
:10174000BF9380919E0290919F02A091A002B091C0
:10175000A10230919D0223E0230F2D3720F4019642
:10176000A11DB11D05C026E8230F0296A11DB11DC4
:1017700020939D0280939E0290939F02A093A002CB
:10178000B093A1028091A2029091A302A091A40221
:10179000B091A5020196A11DB11D8093A202909364
:1017A000A302A093A402B093A502BF91AF919F9111
:1017B0008F913F912F910F900FBE0F901F90189512
:1017C0003FB7F8948091A2029091A302A091A40245
:1017D000B091A50226B5A89B05C02F3F19F0019630
:1017E000A11DB11D3FBF6627782F892F9A2F620F49
:1017F000711D811D911D42E0660F771F881F991F83
:101800004A95D1F70895CF92DF92EF92FF92CF934E
:10181000DF936B017C010E94E00BEB01C114D1044A
:10182000E104F10489F00E949B0D0E94E00B6C1B07
:101830007D0B683E734090F381E0C81AD108E1083F
:10184000F108C851DC4FEACFDF91CF91FF90EF90C4
:10185000DF90CF900895789484B5826084BD84B57C
:10186000816084BD85B5826085BD85B5816085BD9B
:10187000EEE6F0E0808181608083E1E8F0E01082B4
:10188000808182608083808181608083E0E8F0E0F5
:10189000808181608083E1E9F0E0808182608083E3
:1018A000808181608083E0E9F0E0808181608083D5
:1018B000E1ECF0E0808184608083808182608083BD
:1018C000808181608083E3ECF0E0808181608083AF
:1018D000E0ECF0E0808182608083E2ECF0E08081E7
:1018E00081608083EAE7F0E080818460808380818A
:1018F0008260808380818160808380818068808332
:10190000089590E0FC013197EF30F105B0F5EB5907
:10191000FF4F0C949C0D809180008F7703C08091C5
:1019200080008F7D80938000089580918000877F64
:10193000F9CF84B58F7702C084B58F7D84BD0895BB
:10194000809190008F7707C0809190008F7D03C0B9
:1019500080919000877F8093900008958091C000CF
:101960008F7703C08091C0008F7D8093C000089561
:101970008091C200877F8093C2000895CF93DF9348
:1019800090E0FC01EC57FE4F2491FC01EE55FE4F18
:101990008491882349F190E0880F991FFC01E2535C
:1019A000FE4FA591B49180549E4FFC01C591D491F6
:1019B0009FB7611108C0F8948C91209582238C9375
:1019C000888182230AC0623051F4F8948C91322FBE
:1019D000309583238C938881822B888304C0F8946C
:1019E0008C91822B8C939FBFDF91CF9108950F93A1
:1019F0001F93CF93DF931F92CDB7DEB7282F30E030
:101A0000F901EA59FE4F8491F901EC57FE4F149108
:101A1000F901EE55FE4F04910023C9F0882321F00F
:101A200069830E94810C6981E02FF0E0EE0FFF1FB7
:101A3000E054FE4FA591B4919FB7F8948C91611139
:101A400003C01095812301C0812B8C939FBF0F9001
:101A5000DF91CF911F910F910895FF920F931F93E4
:101A6000CF93DF938C01C091A602D091A702F12CF5
:101A700080E090E02091A802F21660F4EA81FB81F8
:101A80000280F381E02DC80109950990D881C02D0D
:101A9000F394F0CFDF91CF911F910F91FF900895B4
:101AA0000F931F93CF93DF93082FC091A602D0917D
:101AB000A70210E080E090E02091A802121770F4D5
:101AC000009761F4EA81FB810480F581E02D802F8D
:101AD00009950990D881C02D1F5FEECFDF91CF917E
:101AE0001F910F910895EF92FF920F931F93CF9341
:101AF000DF938C01E62EC091A602D091A702F12CB3
:101B000080E09091A802F91678F481110DC0EA8165
:101B1000FB810190F081E02D6E2DC801099509909F
:101B2000D881C02DF394EDCFDF91CF911F910F910C
:101B3000FF90EF9008950895EE0FFF1F0590F49128
:081B4000E02D0994F894FFCF99
:101B4800088000E100000000000000C18081000062
:101B580000415652204953500000000000DB052286
:0A1B68000605061506F10502060049
:00000001FF
