:100000000C941C010C9444010C9444010C94440184
:100010000C9444010C9444010C9444010C9444014C
:100020000C9444010C9444010C9442090C94100863
:100030000C9444010C9444010C9444010C9444012C
:100040000C9444010C9444010C9444010C9444011C
:100050000C9444010C9444010C9444010C943B0511
:100060000C9444010C9496040C94C8040C94440120
:100070000C9444010C9444010C9444010C944401EC
:100080000C9444010C9444010C9444010C944401DC
:100090000C9444010C9444010C9444010C944401CC
:1000A0000C9444010C9444010C944401080B00028C
:1000B0000202010009040000010202000005240000
:1000C0001001052401010104240206052406000193
:1000D0000705810310004009040100020A00000026
:1000E000070502024000000705830240000000C12E
:1000F0008081C112010002020000404123418000C2
:1001000001010200011201000200000040412341F0
:100110008000010102000141726475696E6F204C1C
:100120004C430041726475696E6F2059756E00040E
:1001300003090400000000000000002A2B28000032
:1001400000000000000000000000000000000000AF
:100150000000002C9EB4A0A1A2A434A6A7A5AE3690
:100160002D3738271E1F20212223242526B333B6FE
:100170002EB7B89F8485868788898A8B8C8D8E8FD1
:10018000909192939495969798999A9B9C9D2F31D4
:1001900030A3AD350405060708090A0B0C0D0E0F38
:1001A000101112131415161718191A1B1C1DAFB1B4
:1001B000B0B500090402000103000000092101019B
:1001C00000012265000705840340000105010902C2
:1001D000A1010901A10085010509190129031500E3
:1001E00025019503750181029501750581030501BE
:1001F0000930093109381581257F75089503810675
:10020000C0C005010906A1018502050719E029E71B
:100210001500250175019508810295017508810376
:1002200095067508150025650507190029658100E3
:10023000C0006504F804ED0A11241FBECFEFDAE018
:10024000DEBFCDBF11E0A0E0B1E0E8E4F6E102C01E
:1002500005900D92AA3BB107D9F722E0AAEBB1E0D5
:1002600001C01D92A73CB207E1F712E0C8E3D2E05B
:1002700004C02297FE010E941E0BC233D107C9F7AA
:100280000E9483040C94220B0C940000DC01ED917D
:10029000FC910190F081E02D099440E052EC61E086
:1002A00070E08BEB91E00E945F044091000150915F
:1002B0000101609102017091030126E08BE092E060
:1002C0000C944003CF93DF938BEB91E00E94DC030F
:1002D000EC018F3F2FEF920709F472C08091BA01B1
:1002E00081110DC0CE37D10521F481E08093BA0190
:1002F00067C0BE018BE092E00E94460161C0C0333E
:10030000D10561F426E040E051EE60E070E08BE062
:1003100092E00E9440036AE171E00EC0C133D10552
:1003200081F426E040E052EC61E070E08BE092E086
:100330000E9440036DE271E08BEB91E00E944B0262
:100340003DC0C233D10561F426E040E950ED63E0E1
:1003500070E08BE092E00E94400361E471E0ECCF3A
:10036000C333D10561F426E040E251EA67E070E072
:100370008BE092E00E94400365E571E0DDCFCE376F
:10038000D10589F4E0910B02F0910C020280F38117
:10039000E02D4BE050E06EE071E08BE092E00995DB
:1003A00069E671E0C9CF6EE770E08BE092E00E94F1
:1003B0004601BE018BE092E00E9446011092BA0114
:1003C0008BE092E00E9476028F3F2FEF920739F088
:1003D000682F8BEB91E0DF91CF910C94A203DF911A
:1003E000CF910895CF92DF92EF92FF920F931F93D8
:1003F000CF93DF936C017A01EB01E60EF71E00E06C
:1004000010E0CE15DF0561F06991D601ED91FC9108
:100410000190F081E02DC6010995080F191FF1CF59
:10042000C801DF91CF911F910F91FF90EF90DF9066
:10043000CF9008956115710581F0DB010D900020CA
:10044000E9F7AD0141505109461B570BDC01ED9115
:10045000FC910280F381E02D099480E090E0089502
:10046000DC01ED91FC910190F081E02D09940F9356
:100470001F93CF93DF93EC016DE00E9430028C015B
:100480006AE0CE010E943002800F911FDF91CF9170
:100490001F910F9108950F931F93CF93DF93EC015A
:1004A0000E941A028C01CE010E943702800F911F18
:1004B000DF91CF911F910F910895FC01818D228DC5
:1004C00090E0805C9F4F821B91098F73992708955C
:1004D000FC01918D828D981731F0828DE80FF11D0E
:1004E000858D90E008958FEF9FEF0895FC01918D29
:1004F000828D981761F0828DDF01A80FB11D5D9686
:100500008C91928D9F5F9F73928F90E008958FEFF3
:100510009FEF08958EEE94E0892B49F080E090E003
:10052000892B29F00E94EE0481110C94000008959B
:10053000FC01848DDF01A80FB11DA35ABF4F2C9180
:10054000848D90E001968F739927848FA689B7894F
:100550002C93A089B1898C9180648C93938D848D28
:10056000981306C00288F389E02D80818F7D8083F7
:100570000895CF93DF93EC01888D8823C9F0EA8931
:10058000FB89808185FD05C0A889B9898C9186FD8C
:100590000FC00FB607FCF5CF808185FFF2CFA88989
:1005A000B9898C9185FFEDCFCE010E949802E7CFEB
:1005B000DF91CF910895CF92DF92FF920F931F9317
:1005C000CF93DF931F92CDB7DEB76C01DC015B9652
:1005D0009C915B975C968C915C97981307C05096A2
:1005E000ED91FC915197808185FD32C0F601038D1C
:1005F00010E00F5F1F4F0F731127F02EF601848D4F
:10060000F81211C00FB607FCF9CFD6015096ED9144
:10061000FC915197808185FFF1CFC60169830E94CB
:1006200098026981EBCF838DE80FF11DE35AFF4FEC
:100630006083D6015B960C935B975296ED91FC918B
:10064000539780818062808381E058968C930DC09F
:10065000D6015696ED91FC91579760835096ED9197
:10066000FC91519780818064808381E090E00F90BD
:10067000DF91CF911F910F91FF90DF90CF90089560
:10068000BF92CF92DF92EF92FF92CF93DF93EC0174
:100690006A017B01B22EE889F98982E080834115E5
:1006A00081EE580761057105A1F060E079E08DE306
:1006B00090E0A70196010E94FA0A215031094109F0
:1006C00051095695479537952795211580E13807AB
:1006D00098F0E889F989108260E874E88EE190E08A
:1006E000A70196010E94FA0A2150310941095109D6
:1006F0005695479537952795EC85FD853083EE8592
:10070000FF852083188EEC89FD89B082EA89FB89F8
:10071000808180618083EA89FB8980818860808311
:10072000EA89FB89808180688083EA89FB898081EE
:100730008F7D8083DF91CF91FF90EF90DF90CF90FE
:10074000BF900895CF93DF931F92CDB7DEB7698333
:10075000DC01ED91FC910280F381E02D41E050E05D
:10076000BE016F5F7F4F09950F90DF91CF91089584
:10077000CF93DF93EC018C859D8597FF05C082E0C8
:100780000E94E5069D878C878C859D85DF91CF91A2
:10079000089583E00C943809FC018485958597FDC4
:1007A00006C082E00E948D0690E00196089582E0E6
:1007B0000E948D0690E00895FC018485958597FD43
:1007C00005C02FEF3FEF35872487089582E00C9412
:1007D000E506CF93DF93EC0180910B01882331F084
:1007E00083E00E9416071816190634F081E090E0A5
:1007F0009B838A8380E090E0DF91CF910895FC0194
:1008000020812E5F208342E450E06CEA70E080E8B3
:100810000C94B107FC0181819081913A59F48132A5
:1008200009F03CC047E050E064E071E080E00E94E5
:10083000B10743C0913291F5803239F467E070E03E
:1008400084E091E00E94E20706C0823209F035C0E0
:10085000828180930B018091040190910501A09108
:100860000601B0910701803B9440A105B105C1F498
:1008700080910B0180FD14C087E797E790930108F2
:10088000809300082BE088E190E00FB6F894A895DB
:10089000809360000FBE209360000FC080E0089539
:1008A00088E10FB6F89480936000109260000FBE4C
:1008B000A895109201081092000881E008952FEF8A
:1008C0003FEFFC013587248708951092BE011092F6
:1008D000BD0188EE93E0A0E0B0E08093BF0190936B
:1008E000C001A093C101B093C2018FE991E0909340
:1008F000BC018093BB018FEF9FEF9093C801809361
:10090000C701089508950E94D0050E94820481EBDA
:1009100092E00E9498090E944D01CAE8D2E00E942C
:1009200062012097E1F30E948A02F9CF1F920F9291
:100930000FB60F9211242F938F939F93EF93FF93F2
:10094000E0911B02F0911C028081E0912102F09164
:10095000220282FD12C09081809124028F5F8F73EA
:1009600020912502821751F0E0912402F0E0E55F2A
:10097000FD4F958F8093240201C08081FF91EF91FC
:100980009F918F912F910F900FBE0F901F901895F0
:100990001F920F920FB60F9211242F933F934F93F4
:1009A0005F936F937F938F939F93AF93BF93EF93D7
:1009B000FF938BE092E00E949802FF91EF91BF912C
:1009C000AF919F918F917F916F915F914F913F91E7
:1009D0002F910F900FBE0F901F9018958BE092E013
:1009E0000E945D0221E0892B09F420E0822F089506
:1009F00010920E0210920D0288EE93E0A0E0B0E09B
:100A000080930F0290931002A0931102B0931202F0
:100A10008FE891E090930C0280930B028DEC90E0B4
:100A200090931802809317028CEC90E090931A0236
:100A30008093190288EC90E090931C0280931B0233
:100A400089EC90E090931E0280931D028AEC90E066
:100A50009093200280931F028EEC90E090932202EC
:100A600080932102109224021092250210922602F5
:100A70001092270208951F920F920FB60F92112421
:100A80002F933F938F939F93AF93BF938091A9022E
:100A90009091AA02A091AB02B091AC023091A80251
:100AA00023E0230F2D3720F40196A11DB11D05C0B1
:100AB00026E8230F0296A11DB11D2093A802809362
:100AC000A9029093AA02A093AB02B093AC028091CA
:100AD000AD029091AE02A091AF02B091B00201962A
:100AE000A11DB11D8093AD029093AE02A093AF0201
:100AF000B093B002BF91AF919F918F913F912F9191
:100B00000F900FBE0F901F9018953FB7F8948091EB
:100B1000AD029091AE02A091AF02B091B00226B5A5
:100B2000A89B05C02F3F19F00196A11DB11D3FBF25
:100B30006627782F892F9A2F620F711D811D911DB5
:100B400042E0660F771F881F991F4A95D1F70895D5
:100B5000CF92DF92EF92FF92CF93DF936B017C01F4
:100B60000E948505EB01C114D104E104F10489F070
:100B70000E94B6090E9485056C1B7D0B683E734080
:100B800090F381E0C81AD108E108F108C851DC4FA0
:100B9000EACFDF91CF91FF90EF90DF90CF90089553
:100BA000789484B5826084BD84B5816084BD85B548
:100BB000826085BD85B5816085BDEEE6F0E080810F
:100BC00081608083E1E8F0E0108280818260808330
:100BD000808181608083E0E8F0E0808181608083B3
:100BE000E1E9F0E0808182608083808181608083A0
:100BF000E0E9F0E0808181608083E1ECF0E08081D9
:100C00008460808380818260808380818160808332
:100C1000E3ECF0E0808181608083E0ECF0E08081B3
:100C200082608083E2ECF0E0808181608083EAE78B
:100C3000F0E0808184608083808182608083808115
:100C40008160808380818068808308954091B502AF
:100C50005091B6022091B3023091B402421753076B
:100C6000B4F49091E8009570E1F39091E80092FD62
:100C700019C08093F1008091B5029091B60201965F
:100C80008F739927892B19F48EEF8093E800809158
:100C9000B5029091B60201969093B6028093B50288
:100CA00081E0089580E00895FF920F931F93CF9302
:100CB000DF938C0188E10E94260683E00E942606CD
:100CC000C0E0D0E0F801EC0FFD1F84910E942606E1
:100CD000F82E80E00E9426068F2121F02196CB304D
:100CE000D10581F7DF91CF911F910F91FF9008956A
:100CF000615030F02091F100FC0120830196F8CF83
:100D0000289884E68093B80208952FB7FC012083C9
:100D1000F89467706093E9000895CF93DF931F9272
:100D2000CDB7DEB7682FCE0101960E94850680916F
:100D3000F20099819FBF0F90DF91CF910895FF92AC
:100D40000F931F93CF93DF9300D0CDB7DEB7F62E6E
:100D50008A019091B702992311F057FF03C08FEFDA
:100D60009FEF2BC0682FCE0101967A830E948506E3
:100D70008091F20090E0A8017A81801791070CF42D
:100D8000AC01EF2DF72FF40E84E6FE1639F028980B
:100D90008093B8029091F1009193F7CF41155105DE
:100DA00021F08091F200882321F089818FBFCA0150
:100DB00004C08BE68093E800F8CF0F900F90DF918E
:100DC000CF911F910F91FF900895CF93DF931F92C2
:100DD000CDB7DEB741E050E0BE016F5F7F4F0E94AC
:100DE0009F06019719F4898190E002C08FEF9FEF71
:100DF0000F90DF91CF910895CF93DF931F92CDB7DE
:100E0000DEB7682FCE0101960E9485069091E8001A
:100E1000892F807295FF04C09091F20080E4891BB5
:100E200099819FBF0F90DF91CF9108956F927F922C
:100E30008F929F92AF92BF92CF92DF92EF92FF92EA
:100E40000F931F93CF93DF931F92CDB7DEB7782E0A
:100E50007B01C42EB52E8091B702882369F0042F40
:100E6000152F8AEFD82E872D8072982E9AE3A92EFF
:100E7000872D8074882E11C08FEF9FEF57C0872D6C
:100E80000E94FC06682E81110CC0DA94A9F361E07F
:100E900070E080E090E00E94A8050115110579F747
:100EA0003BC0282F30E0021713070CF4602E672D8B
:100EB000CE0101960E9485068091E80085FF29C039
:100EC000262D30E0021B130B992039F06A948FEF26
:100ED0006816B1F01092F100F9CFF701862D77FE78
:100EE00007C0815058F094919093F1003196F9CF5A
:100EF000815020F091919093F100FACFE20EF31E11
:100F00008091E80085FF0FC00115110511F48110D3
:100F10000AC089818FBFC1CF5D9884E68093B902F2
:100F20008C2D9B2D03C0A092E800F3CF0F90DF9192
:100F3000CF911F910F91FF90EF90DF90CF90BF90D6
:100F4000AF909F908F907F906F9008951092E900DE
:100F50001092B6021092B5029093B4028093B3023D
:100F60000895CF92DF92FF920F931F93CF93DF9359
:100F700000D0CDB7DEB7F82E8A016B01011511053F
:100F8000B1F0F601F7FE02C0849101C0808149836F
:100F90005A830E94260601501109FFEFCF1ADF0A7B
:100FA00049815A818111EACF8FEF9FEF01C0CA01B9
:100FB0000F900F90DF91CF911F910F91FF90DF90D5
:100FC000CF9008951F93CF93DF931F92CDB7DEB7D5
:100FD000162F2091E80022FFFCCF612F79830E9419
:100FE00078068BEF8093E800812F7981972F0F90FF
:100FF000DF91CF911F910895CF93DF931F92CDB7CB
:10100000DEB71982CE0101960E94FF03CE01019640
:101010000E94D509898190E00F90DF91CF910895CA
:101020001F920F920FB60F921124EF92FF920F931F
:101030001F932F933F934F935F936F937F938F9360
:101040009F93AF93BF93EF93FF93CF93DF93CDB76E
:10105000DEB76297DEBFCDBF1092E9008091E80055
:1010600083FFE9C068E0CE010A960E94780682EF0D
:101070008093E8009A8597FF05C08091E80080FF83
:10108000FCCF03C08EEF8093E800892F807609F0B3
:10109000B7C08B85811105C01092F1001092F1004C
:1010A000C3C0282F2D7F213009F4BEC0853049F4FC
:1010B0008091E80080FFFCCF8C8580688093E300FE
:1010C000B3C0863009F074C02D85E888F9882230D5
:1010D00071F580E090E02A8B0E94A6070E94FC0731
:1010E00099E08E010F5F1F4FF801392F11923A9549
:1010F000E9F799832A892A8391E09E8390E898876B
:101100009AEF99872091B5023091B602275F3F4F41
:101110003C832B838D83C7010E94A60749E050E0E2
:10112000B80180E00E94B1070E94FC077DC0C701A2
:101130002A8B0E94A6072A89223241F482E290E09B
:101140000E94E009892B09F06FC072C0213069F458
:1011500088899989089711F42093B2028091B2028C
:10116000811116C065E071E018C0233009F060C03D
:101170008C85882381F0823019F483E291E005C0E8
:10118000813009F055C087E191E00E9454064AC0C1
:1011900063EF70E002C06FE271E06115710509F460
:1011A00047C0FB01449150E080E80E94B1073CC079
:1011B000873009F43DC0883021F481E08093F1004C
:1011C00033C0893089F5937099F5EFEEF0E081E056
:1011D00021E096E38093E9002093EB003491309373
:1011E000EC009093ED008F5F3196853099F78EE794
:1011F0008093EA001092EA008C858093B70214C0B5
:10120000888999890E94A6078E85811105C0CE0123
:101210000A960E940A0406C0823051F4CE010A9652
:101220000E94080A882321F08EEF8093E80003C013
:1012300081E28093EB0062960FB6F894DEBF0FBE9A
:10124000CDBFDF91CF91FF91EF91BF91AF919F9172
:101250008F917F916F915F914F913F912F911F914E
:101260000F91FF90EF900F900FBE0F901F90189569
:101270008093E9008091F200882319F08AE380933B
:10128000E80008951F920F920FB60F9211242F932A
:101290003F934F935F936F937F938F939F93AF93FE
:1012A000BF93EF93FF938091E1001092E10083FFE1
:1012B0000FC01092E90091E09093EB001092EC00C7
:1012C00092E39093ED001092B70298E09093F000B3
:1012D00082FF1DC083E00E9438098091B9028823F3
:1012E00039F08091B90281508093B902882369F066
:1012F0008091B802882359F08091B8028150809380
:10130000B802811104C0289A02C05D9AF1CFFF9102
:10131000EF91BF91AF919F918F917F916F915F916D
:101320004F913F912F910F900FBE0F901F901895E6
:101330001092B70281E08093D70080EA8093D800B2
:1013400082E189BD09B400FEFDCF61E070E080E07C
:1013500090E00E94A80580E98093D8008CE08093FB
:10136000E2001092E000559A209A08950895FF92A5
:101370000F931F93CF93DF93EC01F62EE881F98151
:101380000480F581E02D09958C01E881F9810680C2
:10139000F781E02D6F2DCE010995C8019927DF91C6
:1013A000CF911F910F91FF900895FC0120812F5F35
:1013B000208349E150E063EB71E080E80C94B107D1
:1013C00045E650E06CEC71E080E80C94B107EF92D8
:1013D000FF920F931F93CF93DF931F92CDB7DEB78A
:1013E00089838B017A0141E050E0BE016F5F7F4F3E
:1013F00084E00E941607A701B80184E40E94160742
:101400000F90DF91CF911F910F91FF90EF90089572
:10141000FC0191818081813A31F481E0913091F039
:10142000933089F411C0813271F49B3021F48281B0
:1014300080930D0105C09A3031F4828180930C01B4
:1014400081E00895089580E0089548E050E082E04A
:101450000C94E709CF93DF93DC01683818F0E8E7D4
:10146000E60F25C0E62FF0E067FF11C0E058F10954
:1014700081E090E001C0880FEA95EAF714969C910C
:101480001497982B14969C931497E0E010C0ED5C91
:10149000FE4FE491EE2309F440C0E7FF08C0149624
:1014A0008C911497826014968C931497EF7716960C
:1014B0008C9116978E1741F117968C9117978E176E
:1014C00019F118968C9118978E17F1F019968C9146
:1014D00019978E17C9F01A968C911A978E17A1F04A
:1014E0001B968C911B978E1779F080E090E0ED01B0
:1014F000C80FD91F2E81211102C0EE8305C00196AD
:1015000086309105A1F709C0BD016C5F7F4FCD0109
:101510000E94250A81E090E008C081E090E01396E7
:101520009C938E93129780E090E0DF91CF91089585
:10153000683818F0E8E7E60F25C0E62FF0E067FF0F
:1015400012C0E058F10921E030E001C0220FEA9515
:10155000EAF72095DC0114963C91149732231496F7
:101560003C93E0E00FC0ED5CFE4FE491EE2329F1E7
:10157000E7FF08C0DC0114962C9114972D7F149678
:101580002C93EF7720E030E0EE2351F0DC01A20F46
:10159000B31F16964C9116974E1302C016961C92C6
:1015A0002F5F3F4F2630310579F7BC016C5F7F4FCD
:1015B0000E94250A81E090E0089580E090E008957F
:1015C000FC011682178210861186128613861482F9
:1015D000BC016C5F7F4F0C94250A1092C6021092DA
:1015E000BD021092BC028FEA91E09093BB028093FF
:1015F000BA020895A1E21A2EAA1BBB1BFD010DC061
:10160000AA1FBB1FEE1FFF1FA217B307E407F507B2
:1016100020F0A21BB30BE40BF50B661F771F881F8E
:10162000991F1A9469F760957095809590959B0124
:10163000AC01BD01CF010895EE0FFF1F0590F4919D
:08164000E02D0994F894FFCF9E
:1016480090D0030000E10000000000000101FF004D
:10165800000558585858587FF9005370656564203C
:1016680073657420746F20353736303000537065D9
:1016780065642073657420746F20313135323030E1
:101688000053706565642073657420746F2032356B
:101698003030303000537065656420736574207491
:1016A8006F203530303030300053656E64696E67B6
:1016B8002062726964676527732073687574646F44
:1016C800776E20636F6D6D616E640000000000DB53
:1016D80002F2015D0276026802B90200000000A26F
:1016E80003E903CC03DC03B803C90300000000B717
:0A16F80009F2012A0A980AE00A002C
:00000001FF
