:100000000C941B010C9443010C9443010C94430188
:100010000C9443010C9443010C9443010C94430150
:100020000C9443010C9443010C9462050C9430042D
:100030000C9443010C9443010C9443010C94430130
:100040000C9443010C9443010C9443010C94430120
:100050000C9443010C9443010C9443010C945B01F8
:100060000C9443010C9443010C9443010C94430100
:100070000C9443010C9443010C9443010C944301F0
:100080000C9443010C9443010C9443010C944301E0
:100090000C9443010C9443010C9443010C944301D0
:1000A0000C9443010C9443010C94430100C18081E2
:1000B000C112010002020000404123418000010101
:1000C00002000112010002000000404123418000B3
:1000D000010102000141726475696E6F204C4C434E
:1000E0000041726475696E6F2059756E00040309D2
:1000F00004080B00020202010009040000010202D0
:100100000000052400100105240101010424020659
:1001100005240600010705810310004009040100C1
:10012000020A0000000705020240000007058302E2
:1001300040000000000000000000002A2B28000002
:1001400000000000000000000000000000000000AF
:100150000000002C9EB4A0A1A2A434A6A7A5AE3690
:100160002D3738271E1F20212223242526B333B6FE
:100170002EB7B89F8485868788898A8B8C8D8E8FD1
:10018000909192939495969798999A9B9C9D2F31D4
:1001900030A3AD350405060708090A0B0C0D0E0F38
:1001A000101112131415161718191A1B1C1DAFB1B4
:1001B000B0B500090402000103000000092101019B
:1001C00000012265000705840340000105010902C2
:1001D000A1010901A10085010509190129031500E3
:1001E00025019503750181029501750581030501BE
:1001F0000930093109381581257F75089503810675
:10020000C0C005010906A1018502050719E029E71B
:100210001500250175019508810295017508810376
:1002200095067508150025650507190029658100E3
:10023000C0009306E70711241FBECFEFDAE0DEBF50
:10024000CDBF11E0A0E0B1E0E8E4F0E102C005902C
:100250000D92A832B107D9F721E0A8E2B1E001C0C0
:100260001D92A739B207E1F712E0C6E3D2E004C05D
:100270002297FE010E941E08C233D107C9F70E94CF
:1002800048010C9422080C940000089508950895E4
:100290000E94F0010E94470181E391E00E94B805AD
:1002A0000E944501C0E0D0E00E9446012097E1F3A2
:1002B0000E940000F9CF1F920F920FB60F921124E7
:1002C0002F933F938F939F93AF93BF938091290177
:1002D00090912A01A0912B01B0912C01309128011D
:1002E00023E0230F2D3720F40196A11DB11D05C079
:1002F00026E8230F0296A11DB11D209328018093AB
:10030000290190932A01A0932B01B0932C01809195
:100310002D0190912E01A0912F01B09130010196F5
:10032000A11DB11D80932D0190932E01A0932F014B
:10033000B0933001BF91AF919F918F913F912F91D9
:100340000F900FBE0F901F9018953FB7F8948091B3
:100350002D0190912E01A0912F01B091300126B571
:10036000A89B05C02F3F19F00196A11DB11D3FBFED
:100370006627782F892F9A2F620F711D811D911D7D
:1003800042E0660F771F881F991F4A95D1F708959D
:10039000CF92DF92EF92FF92CF93DF936B017C01BC
:1003A0000E94A501EB01C114D104E104F10489F01C
:1003B0000E94B0060E94A5016C1B7D0B683E734035
:1003C00090F381E0C81AD108E108F108C851DC4F68
:1003D000EACFDF91CF91FF90EF90DF90CF9008951B
:1003E000789484B5826084BD84B5816084BD85B510
:1003F000826085BD85B5816085BDEEE6F0E08081D7
:1004000081608083E1E8F0E01082808182608083F7
:10041000808181608083E0E8F0E08081816080837A
:10042000E1E9F0E080818260808380818160808367
:10043000E0E9F0E0808181608083E1ECF0E08081A0
:1004400084608083808182608083808181608083FA
:10045000E3ECF0E0808181608083E0ECF0E080817B
:1004600082608083E2ECF0E0808181608083EAE753
:10047000F0E08081846080838081826080838081DD
:1004800081608083808180688083089540913501F8
:1004900050913601209133013091340142175307B6
:1004A000B4F49091E8009570E1F39091E80092FD2A
:1004B00019C08093F1008091350190913601019629
:1004C0008F739927892B19F48EEF8093E800809120
:1004D0003501909136010196909336018093350154
:1004E00081E0089580E00895FF920F931F93CF93CA
:1004F000DF938C0188E10E94460283E00E9446025D
:10050000C0E0D0E0F801EC0FFD1F84910E9446028C
:10051000F82E80E00E9446028F2121F02196CB30F8
:10052000D10581F7DF91CF911F910F91FF90089531
:10053000615030F02091F100FC0120830196F8CF4A
:10054000289884E68093380108952FB7FC01208312
:10055000F89467706093E9000895CF93DF931F923A
:10056000CDB7DEB7682FCE0101960E94A50280911B
:10057000F20099819FBF0F90DF91CF910895FF9274
:100580000F931F93CF93DF9300D0CDB7DEB7F62E36
:100590008A0190913701992311F057FF03C08FEF23
:1005A0009FEF2BC0682FCE0101967A830E94A5028F
:1005B0008091F20090E0A8017A81801791070CF4F5
:1005C000AC01EF2DF72FF40E84E6FE1639F02898D3
:1005D000809338019091F1009193F7CF4115510527
:1005E00021F08091F200882321F089818FBFCA0118
:1005F00004C08BE68093E800F8CF0F900F90DF9156
:10060000CF911F910F91FF900895CF93DF931F9289
:10061000CDB7DEB741E050E0BE016F5F7F4F0E9473
:10062000BF02019719F4898190E002C08FEF9FEF1C
:100630000F90DF91CF910895CF93DF931F92CDB7A5
:10064000DEB7682FCE0101960E94A5029091E800C6
:10065000892F807295FF04C09091F20080E4891B7D
:1006600099819FBF0F90DF91CF9108956F927F92F4
:100670008F929F92AF92BF92CF92DF92EF92FF92B2
:100680000F931F93CF93DF931F92CDB7DEB7782ED2
:100690007B01C42EB52E80913701882369F0042F89
:1006A000152F8AEFD82E872D8072982E9AE3A92EC7
:1006B000872D8074882E11C08FEF9FEF57C0872D34
:1006C0000E941C03682E81110CC0DA94A9F361E02A
:1006D00070E080E090E00E94C8010115110579F7F3
:1006E0003BC0282F30E0021713070CF4602E672D53
:1006F000CE0101960E94A5028091E80085FF29C0E5
:10070000262D30E0021B130B992039F06A948FEFED
:100710006816B1F01092F100F9CFF701862D77FE3F
:1007200007C0815058F094919093F1003196F9CF21
:10073000815020F091919093F100FACFE20EF31ED8
:100740008091E80085FF0FC00115110511F481109B
:100750000AC089818FBFC1CF5D9884E6809339013B
:100760008C2D9B2D03C0A092E800F3CF0F90DF915A
:10077000CF911F910F91FF90EF90DF90CF90BF909E
:10078000AF909F908F907F906F9008951092E900A6
:100790001092360110923501909334018093330109
:1007A0000895CF92DF92FF920F931F93CF93DF9321
:1007B00000D0CDB7DEB7F82E8A016B010115110507
:1007C000B1F0F601F7FE02C0849101C08081498337
:1007D0005A830E94460201501109FFEFCF1ADF0A27
:1007E00049815A818111EACF8FEF9FEF01C0CA0181
:1007F0000F900F90DF91CF911F910F91FF90DF909D
:10080000CF9008951F93CF93DF931F92CDB7DEB79C
:10081000162F2091E80022FFFCCF612F79830E94E0
:1008200098028BEF8093E800812F7981972F0F90AA
:10083000DF91CF911F910895CF93DF931F92CDB792
:10084000DEB71982CE0101960E943306CE010196D1
:100850000E94CF06898190E00F90DF91CF9108959B
:100860001F920F920FB60F921124EF92FF920F93E7
:100870001F932F933F934F935F936F937F938F9328
:100880009F93AF93BF93EF93FF93CF93DF93CDB736
:10089000DEB76297DEBFCDBF1092E9008091E8001D
:1008A00083FFE9C068E0CE010A960E94980282EFB9
:1008B0008093E8009A8597FF05C08091E80080FF4B
:1008C000FCCF03C08EEF8093E800892F807609F07B
:1008D000B7C08B85811105C01092F1001092F10014
:1008E000C3C0282F2D7F213009F4BEC0853049F4C4
:1008F0008091E80080FFFCCF8C8580688093E300C6
:10090000B3C0863009F074C02D85E888F98822309C
:1009100071F580E090E02A8B0E94C6030E941C04BF
:1009200099E08E010F5F1F4FF801392F11923A9510
:10093000E9F799832A892A8391E09E8390E8988732
:100940009AEF99872091350130913601275F3F4F0B
:100950003C832B838D83C7010E94C60349E050E08E
:10096000B80180E00E94D1030E941C047DC0C70131
:100970002A8B0E94C6032A89223241F482E290E047
:100980000E94DA06892B09F06FC072C0213069F429
:1009900088899989089711F4209332018091320156
:1009A000811116C063EC70E018C0233009F060C0FC
:1009B0008C85882381F0823019F481EE90E005C0A7
:1009C000813009F055C085ED90E00E9474024AC064
:1009D00061EB70E002C06DEE70E06115710509F425
:1009E00047C0FB01449150E080E80E94D1033CC025
:1009F000873009F43DC0883021F481E08093F10014
:100A000033C0893089F5937099F5EDEAF0E081E023
:100A100021E096E38093E9002093EB00349130933A
:100A2000EC009093ED008F5F3196853099F78EE75B
:100A30008093EA001092EA008C858093370114C0FD
:100A4000888999890E94C6038E85811105C0CE01CF
:100A50000A960E943E0606C0823051F4CE010A96E4
:100A60000E940207882321F08EEF8093E80003C0E4
:100A700081E28093EB0062960FB6F894DEBF0FBE62
:100A8000CDBFDF91CF91FF91EF91BF91AF919F913A
:100A90008F917F916F915F914F913F912F911F9116
:100AA0000F91FF90EF900F900FBE0F901F90189531
:100AB0008093E9008091F200882319F08AE3809303
:100AC000E80008951F920F920FB60F9211242F93F2
:100AD0003F934F935F936F937F938F939F93AF93C6
:100AE000BF93EF93FF938091E1001092E10083FFA9
:100AF0000FC01092E90091E09093EB001092EC008F
:100B000092E39093ED001092370198E09093F000FB
:100B100082FF1DC083E00E9458058091390188231F
:100B200039F080913901815080933901882369F02F
:100B300080913801882359F0809138018150809349
:100B40003801811104C0289A02C05D9AF1CFFF914B
:100B5000EF91BF91AF919F918F917F916F915F9135
:100B60004F913F912F910F900FBE0F901F901895AE
:100B70001092370181E08093D70080EA8093D800FB
:100B800082E189BD09B400FEFDCF61E070E080E044
:100B900090E00E94C80180E98093D8008CE08093A7
:100BA000E2001092E000559A209A0895CF93DF93C7
:100BB0001F92CDB7DEB76983DC01ED91FC91028015
:100BC000F381E02D41E050E0BE016F5F7F4F09955A
:100BD0000F90DF91CF910895CF93DF93EC018C8537
:100BE0009D8597FF05C082E00E9405039D878C8745
:100BF0008C859D85DF91CF91089583E00C945805F5
:100C0000FC018485958597FD06C082E00E94AD02B7
:100C100090E00196089582E00E94AD0290E0089570
:100C2000FC018485958597FD05C02FEF3FEF358743
:100C30002487089582E00C940503CF93DF93EC01A1
:100C400080910701882331F083E00E943603181653
:100C5000190634F081E090E09B838A8380E090E085
:100C6000DF91CF910895FC0120812E5F208342E423
:100C700050E061EF70E080E80C94D103FC018181C9
:100C80009081913A59F4813209F03CC047E050E03C
:100C900060E071E080E00E94D10343C0913291F5A1
:100CA000803239F467E070E080E091E00E94020455
:100CB00006C0823209F035C082818093070180919D
:100CC000000190910101A0910201B0910301803BCC
:100CD0009440A105B105C1F48091070180FD14C0C5
:100CE00087E797E790930108809300082BE088E15D
:100CF00090E00FB6F894A895809360000FBE209303
:100D000060000FC080E0089588E10FB6F8948093EA
:100D10006000109260000FBEA8951092010810921A
:100D2000000881E0089510923D0110923C0188EE88
:100D300093E0A0E0B0E080933E0190933F01A09348
:100D40004001B09341018EE091E090933B0180938C
:100D50003A018FEF9FEF90934701809346010895EA
:100D60000895FF920F931F93CF93DF93EC01F62E1C
:100D7000E881F9810480F581E02D09958C01E881F5
:100D8000F9810680F781E02D6F2DCE010995C8010C
:100D90009927DF91CF911F910F91FF900895FC014A
:100DA00020812F5F208349E150E063EB71E080E810
:100DB0000C94D10345E650E06CEC71E080E80C94B3
:100DC000D103EF92FF920F931F93CF93DF931F9264
:100DD000CDB7DEB789838B017A0141E050E0BE01D7
:100DE0006F5F7F4F84E00E943603A701B80184E45F
:100DF0000E9436030F90DF91CF911F910F91FF90CA
:100E0000EF900895FC0191818081813A31F481E075
:100E1000913091F0933089F411C0813271F49B309C
:100E200021F482818093090105C09A3031F48281D6
:100E30008093080181E00895089580E0089548E0D6
:100E400050E082E00C94E106CF93DF93DC01683838
:100E500018F0E8E7E60F25C0E62FF0E067FF11C0C5
:100E6000E058F10981E090E001C0880FEA95EAF7C7
:100E700014969C911497982B14969C931497E0E0E9
:100E800010C0ED5CFE4FE491EE2309F440C0E7FF93
:100E900008C014968C911497826014968C931497C2
:100EA000EF7716968C9116978E1741F117968C91C5
:100EB00017978E1719F118968C9118978E17F1F0D5
:100EC00019968C9119978E17C9F01A968C911A97CA
:100ED0008E17A1F01B968C911B978E1779F080E0EE
:100EE00090E0ED01C80FD91F2E81211102C0EE83C1
:100EF00005C0019686309105A1F709C0BD016C5F60
:100F00007F4FCD010E941F0781E090E008C081E083
:100F100090E013969C938E93129780E090E0DF917F
:100F2000CF910895683818F0E8E7E60F25C0E62F5E
:100F3000F0E067FF12C0E058F10921E030E001C0A5
:100F4000220FEA95EAF72095DC0114963C9114975C
:100F5000322314963C93E0E00FC0ED5CFE4FE49129
:100F6000EE2329F1E7FF08C0DC0114962C911497B9
:100F70002D7F14962C93EF7720E030E0EE2351F094
:100F8000DC01A20FB31F16964C9116974E1302C0A8
:100F900016961C922F5F3F4F2630310579F7BC0122
:100FA0006C5F7F4F0E941F0781E090E0089580E012
:100FB00090E00895FC011682178210861186128631
:100FC00013861482BC016C5F7F4F0C941F07109234
:100FD000960110928D0110928C018EE191E0909318
:100FE0008B0180938A010895CF92DF92EF92FF9256
:100FF0000F931F93CF93DF936C017A01EB01E60E01
:10100000F71E00E010E0CE15DF0561F06991D60112
:10101000ED91FC910190F081E02DC6010995080F3A
:10102000191FF1CFC801DF91CF911F910F91FF9050
:10103000EF90DF90CF900895EE0FFF1F0590F49191
:08104000E02D0994F894FFCFA4
:1010480000E1000000000000010100000000D605DA
:101058001D0600061006EC05FD0500000000B1069F
:08106800F40724079207DA07E0
:00000001FF
